:100000000010002019080000150800001508000065
:10001000150800001508000015080000150800006C
:10002000150800001508000015080000150800005C
:10003000150800001508000015080000150800004C
:10004000150800001508000015080000150800003C
:10005000150800001508000015080000E90400005C
:10006000FD04000011050000250500001508000032
:10007000150800001508000015080000150800000C
:1000800015080000150800001508000015080000FC
:1000900015080000150800001508000015080000EC
:1000A00015080000150800001508000015080000DC
:1000B00015080000150800001508000015080000CC
:1000C00015080000150800001508000015080000BC
:1000D00015080000150800001508000015080000AC
:1000E000150800001508000015080000150800009C
:1000F000150800001508000015080000150800008C
:10010000150800001508000015080000150800007B
:10011000150800001508000015080000150800006B
:10012000150800001508000015080000150800005B
:10013000150800001508000015080000150800004B
:1001400010B5054C237833B9044B13B1044800E0D3
:1001500000BF0123237010BD8410002000000000A8
:100160001C2D000008B5034B1BB10349034800E0F8
:1001700000BF08BD00000000881000201C2D0000FA
:10018000A3F5803A704700BF174B002B08BF134BF5
:100190009D46FFF7F5FF00218B460F461348144A92
:1001A000121A02F0A3FA0E4B002B00D098470D4B09
:1001B000002B00D098470020002104000D000D48BE
:1001C000002802D00C4800E000BF02F05BFA2000DB
:1001D000290000F0C3F802F041FA00BF0000080057
:1001E000000000000000000000100020841000202B
:1001F000D4100020000000000000000070B50125B0
:1002000090B00E22002108A802F070FA0D22002101
:1002100004A88DF8205002F069FA1E4B0CAE0FCBEB
:1002200086E80F00102002F0F9F949F27C2304AAB5
:1002300008A9044600F080F904222B4600210DEBAA
:10024000020000F02CF8142002F0E8F905463246CE
:100250001149762300F0CCF801A800F02FF82368AC
:1002600020465B6A98472B6828461B6898472B688E
:1002700028465B689847236820461B6898470028F3
:10028000F9D0236820465B68984701A800F03EF843
:10029000F1E700BFBC2900000000015A704738B5E3
:1002A0000446012A18462372C4E900120CBF134603
:1002B000002301F057FC204638BD000038B5047A11
:1002C0000568D4B1012C1BD0022C1BD0032C03D108
:1002D0000F23EB40DB0704D440F22D410A4800F025
:1002E0005BFB30220123544341F2100204F1A0448D
:1002F000AB4004F57034A35038BD40F2FF13E8E77B
:100300001F23E6E7FF23E4E7CC29000038B5047A91
:100310000568D4B1012C1BD0022C1BD0032C03D1B7
:100320000F23EB40DB0704D44FF489610A4800F047
:1003300033FB30220123544343F2100204F1A04462
:10034000AB4004F57034A35038BD40F2FF13E8E72A
:100350001F23E6E7FF23E4E7CC29000008B502F0FD
:100360000DF9FFF74BFF02F016F9FFF797FFFAE7D9
:100370000120704708B5D0E9010101F0D5FC00204B
:1003800008BD08B50021406801F0B0FC002008BDA0
:10039000C368028A10B51A8002225A8001220446DC
:1003A00059601A811946406801F014FE606801F036
:1003B000EFFC024B0530C0B2185610BD302A0000C9
:1003C000C368028A10B51A80012204465A80596017
:1003D0001A811946406801F0FDFD606801F0D8FC03
:1003E000024B0530C0B2185610BD00BF302A0000C5
:1003F00010B504460548A260C4E90001238201212A
:100400002E2000F0B5FC204610BD00BF402A0000A1
:10041000014B1878704700BFA31000200022014B49
:100420001A707047A31000208368197070478368A2
:100430005980704783681971704743689971704794
:100440008368197370478368597370477047000059
:1004500038B5174B044698420D461CD003F580432F
:10046000984222D003F5804398421ED003F5804382
:1004700098421AD003F58043984216D040F2A72143
:100480000C4800F089FA00239D4204D940F28941CA
:10049000084800F081FA236BDB0704D440F28B415B
:1004A000044800F079FAE56138BD4FF6FF73EBE7D9
:1004B00000800450542A00000148FFF7C9BF00BF64
:1004C0000040055010B5044602F0A6F8204610BDC5
:1004D000012283681A70034BDA609A6942F00102C4
:1004E0009A617047004005500123024A5361024A55
:1004F0001370704700A00450A01000200123024A8E
:100500005361024A1370704700E00450A1100020AC
:100510000123024A5361024A1370704700200550BC
:10052000A21000200123024A5361024A137070474F
:1005300000600550A310002070B51D46124B044604
:10054000C0E90032C0E902150121272000F010FCAB
:1005500040F2FF3300260222A1680C484B806368FA
:100560000E709A7101F0F4FD31466268074801F09F
:1005700047FE4FF48062064B1A6004482946FFF795
:1005800067FF204670BD00BFC42A00000040055030
:1005900000E100E008B5012000F068F8202000F03C
:1005A00065F8BDE80840402000F060B808B50321B8
:1005B000802000F095FF03214FF4806000F090FF51
:1005C00003214FF4906000F08BFF08214FF4C060CE
:1005D00000F086FF08214FF4F06000F081FF082151
:1005E0003E2000F07DFF08212D2000F079FF002043
:1005F00008BD000008B5134B1B68C3F30743012B6C
:100600000ED1114B04205A6E4FF480230F49520330
:1006100058BF0F4A4B6601F51041086258BF536638
:1006200001F08EFF00F05BF801F01CFF01F03CFFD1
:1006300001F070FFFFF7BAFF01F024FFBDE80840AA
:1006400000F042B80080E00F0080005000900050A1
:1006500000A00050704700F006B870477047704720
:100660007047704770470F2070470000082808B592
:1006700016D00DDC022803DC002811DCEB2102E09F
:100680000428FBD1C2210F4800F086F90E2013E0A8
:1006900020280AD0402810D01028EFD1D421F2E72A
:1006A000042200231146184603E0042200231146C9
:1006B000012001F057FA002008BD0023042219464A
:1006C000F1E700BFF42A000008B501213A2000F04C
:1006D0004FFBFFF75FFFBDE8084000F011B80121B4
:1006E0003A2000F045BB00000822014B1A67704712
:1006F00000D003500822014B1A67704700E00350F6
:10070000F0B5404D89B001AC0FCD0FC495E807009E
:1007100084E80700012401213A2000F029FB3A4F28
:100720000121282000F024FB384B384601A903930F
:100730008DF8124001F01EFE234604220021022003
:1007400001F010FA224621460023022001F00AFAA5
:10075000022123460846042201F004FA0422032160
:100760002346022001F0FEF94FF00213284D022625
:10077000C5F83036A3F58033C5F82C361C23C5F8F0
:1007800034664FF44870C5F81C3601F00FFF142092
:10079000FFF7B0FF01F00AFF2320FFF7A5FF01F0EC
:1007A00005FFB9213846FFF7A5FF01F051FEFFF71D
:1007B0009BFF002330461A46194601F0D3F9002367
:1007C00021461A46304601F0CDF9234631463046DF
:1007D000002201F0C7F9234600220321304601F030
:1007E000C1F9384601F08AFD00212820C5F83016ED
:1007F000C5F82C16C5F83416C5F81C1600F0B8FA62
:1008000009B0F0BD342B000000C0055000127A0082
:1008100000C00350FEE7000008B500F02DF8124BB1
:1008200012498B4212D30020114B12498B4218D32C
:10083000FFF7AAFC186850F82240586840F8224098
:10084000013298688242F5D30C33EAE70022F8E7D8
:100850001C6844F8220001325C68A242F8D30833D5
:10086000E4E70022F8E700BF242D0000302D00004F
:10087000302D0000302D00004FF400414FF0FF30CC
:10088000124B134A10B59A60D3F8882042F47002D4
:10089000C3F888200F4A916601F1884101F50052A2
:1008A00010664FF6DF7050660220C3F8D000BFF329
:1008B0004F8FBFF36F8F08244FF440330648C0F8C2
:1008C0008041D36004600B6110BD00BF00ED00E00B
:1008D000000000000090005000E100E0014B1868AB
:1008E000704700BF04100020084B1B6F03F0070384
:1008F000022B04D0032B05D0012B05D0FEE7044BBF
:1009000018687047034BFBE70348704700800050AE
:100910000410002008100020002D310108B5FFF759
:10092000E3FF054B1B6FC3F303330133B0FBF3F05D
:10093000024B186008BD00BF00800050001000206E
:100940000048704700B4C404014B1868704700BFEA
:1009500008100020054B1860054B1B6F03F00703C0
:10096000032B01D1FFF7DABF704700BF081000204A
:10097000008000500020704700487047002D310172
:100980004FF4004070474FF47A707047014B18687D
:10099000704700BF0C100020FEE7000005490A6800
:1009A0001318054883428CBF4FF0FF320B6010468E
:1009B000704700BF1010002000800020044BD3F8C7
:1009C0008420D206FBD4D3F88400C0F38110704792
:1009D0000040005038B5124B0546D3F820310C4684
:1009E00003F00303022B0BD0032B0DD0012B0FD1EF
:1009F000FFF774FF052305B1286004B1236038BDFB
:100A0000FFF7A2FF0323F6E7FFF7B6FF0223F2E7A3
:100A1000044841F22B01FFF7BFFF00231846EAE725
:100A200000800050502B0000F7B50027114B0197B4
:100A3000D3F88041064604F00304012C0D4608D08B
:100A4000022C12D041F278110B48FFF7A5FF3C466B
:100A500004E0394601A8FFF7BDFF0F240EB1019B4A
:100A6000336005B12C6003B0F0BDFFF785FF019046
:100A7000F4E700BF00800050502B000038B5194B40
:100A80000546D3F824310C4603F00703013B052B40
:100A900020D8DFE803F0030F171B0B13FFF71EFF2F
:100AA000052305B1286004B1236038BDFFF716FFA8
:100AB0000623F6E7FFF748FF0323F2E7FFF744FFBB
:100AC0000423EEE7FFF758FF0223EAE7FFF752FFA0
:100AD0000723E6E7044840F68851FFF75DFF00234F
:100AE0001846DEE700800050502B000038B5124B4E
:100AF0000546D3F840310C4603F00303022B0BD01C
:100B0000032B0DD0012B0FD1FFF73AFF092305B1BD
:100B1000286004B1236038BDFFF738FF0823F6E7EB
:100B2000FFF731FF0B23F2E7044841F25901FFF7C9
:100B300033FF00231846EAE700800050502B0000E6
:100B400038B5154B0546D3F800320C4603F00703C1
:100B5000013B032B18D8DFE803F0020A0E12FFF75F
:100B60000FFF092305B1286004B1236038BDFFF7EA
:100B70000DFF0823F6E7FFF706FF0B23F2E7FFF769
:100B8000CDFE0E23800AEDE7044841F22E21FFF747
:100B900003FF00231846E5E700800050502B0000BB
:100BA00038B5124B0546D3F840320C4603F0030328
:100BB000022B0BD0032B0DD0012B0FD1FFF7E0FE42
:100BC000092305B1286004B1236038BDFFF7DEFEBC
:100BD0000823F6E7FFF7D7FE0B23F2E7044841F2BC
:100BE000C111FFF7D9FE00231846EAE70080005044
:100BF000502B000038B5124B0546D3F860310C4637
:100C000003F00303022B0BD0032B0DD0012B0FD1CC
:100C1000FFF7B6FE092305B1286004B1236038BD93
:100C2000FFF7B4FE0823F6E7FFF7ADFE0B23F2E76C
:100C3000044841F28701FFF7AFFE00231846EAE7B8
:100C400000800050502B000010B40F4C0B46D4F81D
:100C5000204204F00304012C0ED0022C10D008B165
:100C6000002101600BB100221A6040F6B251074822
:100C70005DF8044BFFF790BE5DF8044BFFF7AABE8A
:100C80005DF8044BFFF732BF00800050502B00008E
:100C9000B0F5207F10B534D009D8B0F5007F2AD048
:100CA00003D898B1B0F5C07F10D0002421E0B0F592
:100CB000607FFAD1154BD3F88030C3F301149B0643
:100CC00017D5032C15D040F282210FE00F4B1C6F7B
:100CD000230B13F00E0FC4F303340AD0032C08D0F7
:100CE000072C06D00F2C04D040F272210848FFF7E1
:100CF00053FE601C10BD054BD3F89040C4F3046450
:100D0000F7E7024B1C6FC4F38024F2E70080005029
:100D1000502B00004FF400320E4B10B504469A667B
:100D20000020FFF7B5FF41F6713260430A4C0B4BD0
:100D3000A0428CBF4FF480100020D969DA639A6812
:100D400022F4401202439A60CA0344BF0022DA63CD
:100D500010BD00BF00900050005A62020000035016
:100D600008B5FFF7EDFDBDE808400021FFF7D2BF51
:100D700070B5460904460D460FD140F216310D48B4
:100D8000FFF70AFE334604F01F0485B103F58053D4
:100D9000012000FA04F41C6070BD012E05D0064B42
:100DA000064A022E18BF1346EDE7054BEBE703F5A5
:100DB0000053EDE7502B0000688000506082005027
:100DC00064800050002330B5802885B0044601932C
:100DD00074D02AD8002877D0A0F12004412C32D832
:100DE000412C30D8DFE804F07073707386868686F5
:100DF0007373903FA6653F7373732F2F2F2F2F2F81
:100E00008B57737373B0AB732F2F2F2F2F2F2F2F61
:100E10002F2F2F2F2F702F707070862F2F2F2F2F87
:100E20002F2F2F2F2F2F2F2F7070B0F5806F61D0A5
:100E300024D8B0F5007F54D00BD8B0F5807F68D0AF
:100E4000B0F5C07F40D040F26D414248FFF7A4FDAD
:100E500037E0B0F5607F44D0F5D8B0F5207F36D0CC
:100E6000B0F5407FEFD1FFF759FD04464FF42070F5
:100E7000FFF70EFFB4FBF0F0400821E0B0F5C06FC3
:100E800058D00DD8B0F5A06F39D0B0F5B06F3BD0C9
:100E9000B0F5906FD7D1002101A8FFF7EFFD10E06A
:100EA000B0F5E06F4BD0B0F5F06F4DD0B0F5D06F2E
:100EB000C9D1002101A8FFF743FE02E0FFF714FDAE
:100EC0000190019805B030BDFFF728FDF8E7FFF766
:100ED00025FD04464FF42070FFF7DAFEB4FBF0F076
:100EE000EEE7FFF701FD05462046FFF7D1FEB5FB13
:100EF000F0F0E5E7002101A8FFF76CFDE1E7002134
:100F000001A8FFF7A1FEDCE7002101A8FFF78CFD97
:100F1000D7E702934FF0E0231B695B0705D5FFF786
:100F2000FDFC0290029B0193CBE703A902A8FFF707
:100F3000DDFDF7E7002101A8FFF7D8FDC1E700219B
:100F400001A8FFF72DFEBCE7002101A8FFF752FE24
:100F5000B7E700BF502B000008B58020FFF732FF35
:100F6000034B98429EBF4FF48032024B1A6708BD74
:100F7000005A620200A000501FB50023B0F5807F28
:100F800001937FD027D8382800F09C800BD82438D4
:100F9000092810D809280ED8DFE800F06F6F6F6FAE
:100FA0000D0D670D3685522867D007D83D283AD0F9
:100FB0003E2800F08C8040F24B5152E08028FAD15C
:100FC000454B1B6F03F00703013B032B47D8DFE8BA
:100FD00003F044413F75B0F5D06F64D019D8B0F537
:100FE000A06F6FD00AD8B0F5806F46D0B0F5906F83
:100FF000E1D1002001A9FFF741FD3AE0B0F5B06F63
:1010000033D0B0F5C06FD6D1002001A9FFF76EFD37
:101010002FE0B0F5006FECD00AD8B0F5E06F56D0F5
:10102000B0F5F06FC7D1002001A9FFF7E3FD20E084
:10103000B0F5086FBFD1284BD3F8003103F003039C
:10104000022B35D0032B37D0012B39D1FFF77CFC95
:10105000032300E0052301930BE00223FBE740F2AA
:101060009F411E48FFF798FC03E0002001A9FFF70D
:10107000DBFC019805B05DF804FB002001A9FFF737
:10108000A9FCF6E702934FF0E0231B695B0705D547
:10109000FFF744FC0C230393039BDCE703A902A89E
:1010A000FFF724FDF8E7002001A9FFF749FDE0E77D
:1010B000FFF76CFC0823CEE7FFF75CFC0723CAE7C9
:1010C0000123C8E7002001A9FFF7BEFDD1E70020FA
:1010D00001A9FFF765FDCCE700800050502B000010
:1010E000036870B50F2B044604D940F663216E489F
:1010F000FFF752FC63680F2B04D940F666216A485B
:10110000FFF74AFCA3680F2B04D940F66921664813
:10111000FFF742FC237B0F2B04D940F66C21624879
:10112000FFF73AFC637B0F2B04D940F66F215E4832
:10113000FFF732FCA37B3F2B04D940F672215A48BB
:10114000FFF72AFCE37B3F2B04D940F67521564874
:10115000FFF722FC2369032B04D940F6782152487B
:10116000FFF71AFC6369032B04D940F67B214E4834
:10117000FFF712FCE369012B04D940F67E214A48AF
:10118000FFF70AFC8020FFF7F7FE032800F08280BB
:101190004FF40022454B02215A6645F60E03444A9D
:1011A000C2F88030434B9962012103F58053996264
:1011B000936DD903FCD4D4E900131B0543EA016302
:1011C000E17B94F822500B43217B94F8236043EA9F
:1011D0000143617B43EA0133A17B43EA811313613D
:1011E0009169D4E904031B0643EA806301F00041DE
:1011F0000B43A17EE07E0B43217E43EA0143617EE7
:1012000043EA01239361E369126A002B0CBF0021BA
:10121000082122F00D0242EA030242EA8002244B36
:1012200042EA01021A6294F820204FEA421232D1B7
:10123000986A94F8211020F0330042EA0112024328
:1012400042F001029A621C4A996D32EA0101FBD117
:10125000022218498A621A659A6D5200FCD41869F4
:10126000A26820F4700040EA02504FF0004218617A
:10127000104B9A611DB9022203F580539A6216B988
:1012800001220E4B9A6294F824301BB1084B0C4A91
:10129000C3F8802070BD996A21F0330131430A43BD
:1012A00042EA4502EEE700BF502B000000900050DC
:1012B00000C0005000D000500300014000E000508A
:1012C000F1A7FFFF014B93F900007047A410002025
:1012D000436810B5072B044604D940F6E1312A488B
:1012E000FFF75AFBA368032B04D940F6E3312648E5
:1012F000FFF752FB2378032B04D940F6E53122484F
:10130000FFF74AFB94F90130002B04DA40F6E7318D
:101310001D48FFF741FB4FF480011C4A637851667A
:101320004FF4D151022002F5B832516218494F2BC7
:1013300048604FF0010028BF4F2301F580514860FD
:101340001169C903FCD4217843EA01235361D4E92C
:1013500001131B0143EA0123617B0B43217B43EA19
:1013600041039360E37BA17B1B0143EA4113617C52
:101370000B43217C43EA41035360A37C13B16FF418
:10138000D153536210BD00BF502B0000009000509D
:1013900000100250014B1880704700BF141000204D
:1013A0000029CCBF01210021FFF7B4BCB0F5207F9C
:1013B00010B565D00ED8B0F5007F4FD003D800B37C
:1013C000B0F5C07F1DD040F2F921BDE8104034488F
:1013D000FFF7E2BAB0F5607FF5D14C1E012C06D9BB
:1013E000042904D040F2DD212D48FFF7D5FA2D4A1B
:1013F000D2F8803023F0300343EA0413C2F880307F
:1014000010BD102901F1FF3404D8274B23FA01F154
:10141000CB0704D440F2B2212148FFF7BDFAFFF711
:101420009FFC00F045F84FF48031204B1D4A1967AE
:10143000136F23F4704343EA04331367FFF76EFA24
:101440000446FFF7BBFAC0F102012046FFF7A8FFF0
:1014500000F034F8BDE81040FFF77EBD4C1E1F2C95
:1014600004D940F2ED210E48FFF796FA0D4BD3F860
:10147000901021F0F85141EA0461C3F89010BFE7E1
:101480004C1E012C04D940F2F3210548FFF784FAE1
:10149000044B196F21F4806141EA84211967AFE799
:1014A000502B0000008000501601010000900050F9
:1014B00002214FF42070FFF779BF000008B54FF408
:1014C000C070FFF77FFCBDE80840044988428CBF2C
:1014D000022101214FF42070FFF768BF80F0FA026B
:1014E000B0F5807F70B50C4600F008812BD8382805
:1014F00000F0A08110D82438092816D8092814D85B
:10150000DFE810F0E100E100E100E100130013006A
:10151000CC00130048005001522800F0D48007D8B6
:101520003D2851D03E2800F09C8140F667011FE124
:101530008028FAD18B1E052B00F2A580DFE803F08E
:10154000A091A3ABA364B0F5D06F00F02B8130D88D
:10155000B0F5A06F00F06E8115D8B0F5806F00F087
:10156000B280B0F5906FE0D1023C052C00F21381FF
:10157000A74B195DA74AD2F8243123F007030B4388
:10158000C2F824316CE0B0F5B06F00F08780B0F5A0
:10159000C06FCAD1083C032C00F2EF809E4B195D4E
:1015A0009C4AD2F8403123F003030B43C2F8403188
:1015B00056E0B0F5006FD7D015D8B0F5E06F00F069
:1015C0005081B0F5F06FB0D1083C032C00F2DC8004
:1015D000924B195D8F4AD2F8603123F003030B431D
:1015E000C2F860313CE0B0F5086F9ED14C1E072C6C
:1015F00000F20481DFE814F0070102010901020191
:10160000020102010001F60000250426012102204A
:1016100000F056F9FFF7A4FBFFF74AFF4FF48031C3
:101620007F4B7C4A1967136F23F00703334313671B
:10163000FFF774F90646FFF7C1F9C0F10201304621
:10164000FFF7AEFE0121002000F092F9FFF736FF10
:10165000FFF782FC25B9032C02D10122714B9A625B
:1016600070BD4FF400226E4B0E465A66012203F500
:1016700040539D6A03F58053C5F340059A62C5E760
:1016800000250126C2E7002540F28D516648FFF78C
:1016900083F92E46BAE700250226B7E7022C07D0C9
:1016A0000F2C0ED040F2D2515F48FFF775F900249D
:1016B000584BD3F8801121F003010C43C3F880414B
:1016C000CEE70124F4E7032C12D0052C12D0022C13
:1016D00012D040F209615448FFF75EF900224D49EB
:1016E000D1F8203123F003031343C1F82031B7E7C9
:1016F0000222F4E70122F2E70322F0E7A1F1080455
:10170000082C33D8DFE804F0050532051C323232EC
:1017100005004FF480323F4B4449586E03F5805327
:101720005A660B6A43F001030B62C1035CBF404B76
:101730005A664FF0E022136923F0040313618FE728
:101740004FF48032334B3949586E03F580535A6653
:101750000B6A23F001030B62C3035CBF344B5A6670
:101760004FF0E022136943F00403E7E740F23161F0
:10177000BDE870402C48FFF70FB940F24D612A4890
:10178000FFF70AF900210BE74FF4CD612648FFF778
:1017900003F900211EE740F28D612348FFF7FCF8B2
:1017A0000021E7E6083C062C13D8DFE804F0041912
:1017B000190E1212100002221649D1F8003223F03D
:1017C00007031343C1F800324AE70322F4E7042277
:1017D000F2E740F2AD611448FFF7DEF80022EBE7D4
:1017E0000122E9E702220B49D1F8003123F003037B
:1017F0001343C1F8003133E70322F4E740F2E96113
:101800000948FFF7C9F80022EDE70122EBE700BF26
:10181000832B0000008000507F2B00007F2B0000F6
:101820000090005000E00050502B000000C0075016
:1018300000A000500F2C10D0102C10D040F23471AA
:101840001248FFF7A9F800221149D1F8203223F0FD
:1018500003031343C1F8203202E70122F4E7022216
:10186000F2E7083C032C0AD80A4B195D084AD2F863
:10187000403223F003030B43C2F84032F0E640F25B
:10188000B5710248FFF788F80021EFE7502B000000
:10189000008000507F2B0000EFF3108072B670477D
:1018A00000B962B670470000034A0179D36E23F095
:1018B00030030B43D3667047004000507047000070
:1018C0002DE9F0410446264BD3F88420D006FBD402
:1018D000D3F88430C3F381139C423ED0FFF704F861
:1018E000012C05460BD11F4B984204D940F2FD61F3
:1018F0001D48FFF751F801212846FFF751FDFFF77A
:10190000CBFF4FF00072194B07465A662046FFF78F
:10191000D5FF4FF48063124E621E9340DFF848807B
:101920003367736E9A0103D4D6F884309B060AD5C8
:101930003846FFF7B5FF022C0FD12846BDE8F0412D
:101940000021FFF72DBDD6F884309906E9D540F285
:101950000B714046FFF720F8E3E7BDE8F08100BFD8
:1019600000400050005A6202892B000000600050C5
:1019700007B518B90191FEF7B7FF0199064B1B781F
:1019800043B1064B984205D8012003B05DF804EB43
:10199000FFF796BF0220F8E7A5100020005A620268
:1019A000704700004FF0004210B501244AF6CD31D7
:1019B000154B5A66154A03F50B2354605A6C19648B
:1019C000224088B9996811F0010F114903D08C6049
:1019D000D86AC007FCD501234B6012B10D4B0E4AEB
:1019E0001A64FFF7DDFF10BDD96A0907FCD4202176
:1019F000074B59620121A3F58053996005494B6A51
:101A00009B06FCD5E9E700BF00900050005009504C
:101A100000600950004009503254FFFF4FF000426F
:101A200038B5194B194C5A66012203F50C235A603C
:101A30004AF6CD33656C23644378154093401343D5
:101A4000134AD363A368827823F0740343EA021332
:101A5000C278002A14BF042200221343A360027933
:101A6000837943EA022323614279C37943EA02235B
:101A700063610078FFF796FF0DB1064B2364FFF713
:101A80008FFF012038BD00BF00900050004009507A
:101A9000004000503254FFFF38B50D460446D8B11F
:101AA00001281CD002281CD0032803D10F23EB40AF
:101AB000DB0704D440F22D410B48FEF76DFF3020C8
:101AC000012141F21003444304F1A04401FA05F559
:101AD00004F57034E55038BD40F2FF13E7E71F23EB
:101AE000E5E7FF23E3E700BFCC29000038B50D464A
:101AF0000446D8B101281CD002281CD0032803D1E9
:101B00000F23EB40DB0704D440F2FE310B48FEF715
:101B100043FF3020012142F21003444304F1A0446A
:101B200001FA05F504F57034E55038BD40F2FF13B5
:101B3000E7E71F23E5E7FF23E3E700BFCC29000029
:101B400070B5054614460E46FFF7A6FE296881EAE1
:101B5000040202EA06044C402C60BDE87040FFF726
:101B60009FBE0000F8B50D4616461F46044660B3FA
:101B700001282DD002282DD0032803D10F22EA40BE
:101B8000D30704D44FF4B0711B48FEF705FF26B10C
:101B90002946204607B3FFF77FFF04EB4403072DD8
:101BA0004FF00F014FEA031319D8A80006FA00F20C
:101BB000814012481844FFF7C3FFE6B92946204682
:101BC000AFB1BDE8F840FFF767BF40F2FF12D6E7BC
:101BD0001F22D4E7FF22D2E7FFF788FFDDE7A5F158
:101BE0000800800006FA00F281400548E2E7BDE8FF
:101BF000F840FFF77BBFF8BDB82B000004C00350CE
:101C00000CC00350F8B506460C4615469ABB40F288
:101C10000F11BDE8F8402F48FEF7BEBE2E4B9E4286
:101C200001D12F203DE040F229112A48FEF7B4FEF1
:101C30003AE0032F42D0294B3CE06FEAC50505444A
:101C40002C44B4FBF0F4013C0AD540F27511214854
:101C5000FEF7A2FE4FF4BB711E48FEF79DFE02E0A8
:101C6000B4F5007FF6D2B3689B0702D5002C08BFFD
:101C70000124B461F8BD03F00307836823F44073C3
:101C80008360FFF709FEB26882EA072303F440731A
:101C90005340B360FFF704FE34B9114B9E42BDD1EF
:101CA0002E20FFF78FF80446B3689A07C1D5032F9B
:101CB00004D00C4B53F827309C4204D84FF4AF713A
:101CC0000448FEF769FE084BD85D6843B5D140F281
:101CD0006F119EE7E82B000000800650242C0000C6
:101CE0000000015A182C0000302C000038B50B4BB6
:101CF000044698420D4607D0094B984204D040F262
:101D00008F110848FEF748FE043425B104F58054CD
:101D10000123236038BD04F50054F9E70000015A9F
:101D200000800650E82B000038B5154B0446984259
:101D30000D4607D0134B984204D04FF4D27112488D
:101D4000FEF72AFE0023114A236404F50053DA63E8
:101D50006A7804F108037AB903F5805302221A6005
:101D60002046D5E901122B7BFFF74CFF204629784E
:101D7000BDE83840FFF7BABF03F50053EEE700BFF8
:101D80000000015A00800650E82B0000FFFF1F00F2
:101D90002DE9F843894B98420BD0894B984226D0C5
:101DA000884840F2FB11FEF7F7FD6FF00300BDE835
:101DB000F883854B402505264FF000084FF0030CB3
:101DC000996800F50054C26B12F4C06F15D09705E6
:101DD0000FD5FD225A7009221A700022026493F96D
:101DE0000110012900D15A7093F90100DFE7774B08
:101DF000E0E75605EFD5FE22ECE71F78082F00F24A
:101E0000D880DFE817F009001F0041004C0069008E
:101E1000740096009E00CD004C880A88E5060AD51D
:101E2000120A02F0060242F0F00201211970426328
:101E3000C1600120BBE702F0FE02A10748BF42F0EB
:101E40000102F2E7170607D5802100F50052D163A1
:101E50004FF608721A8062E05206EAD54A88E563B6
:101E6000D70604D502221A700B784363E1E7920784
:101E700065D507221A701B7901EBC3010B89012B71
:101E8000D7D10823C360D4E71706DDD45206D0D5D6
:101E90004A88E563970752D583F800C093E74C88DA
:101EA0000A88E50643BF120A02F0060242F0F00279
:101EB00002F0FE02640709D51C7942F0010201EB31
:101EC000C4010989012904BF0821C16004211970D6
:101ED0000123C3604263ACE71706B5D45706A8D503
:101EE0004A88E56352072AD507221A70A1E71A79B2
:101EF0005F8801EBC20EBEF80890B94511D80132D7
:101F0000D2B21A714F88A3F8028017F0040FC3D120
:101F1000FF0702D4012A7FF656AF08221A70022367
:101F2000B0E7DEF80420791C5980D25D42630622B6
:101F3000DBE7170688D457067FF57BAFE5631E7095
:101F400041E794067FF575AF456A214C46691A79D9
:101F50003440B4F5003F04BF466A4FF4005601EB2D
:101F6000C20100F500540A8908BFE6632026E66333
:101F70005C88A24281BF4968661C5E800D55598805
:101F80008A42CAD90424012AC46004D9013A914280
:101F900001D10822C2601A78092A3FF41EAF48E72F
:101FA000D2057FF546AF4FF4807100F50052D16342
:101FB00011E74FF609321A800FE700BF0000015AFF
:101FC00000800650E82B0000A8100020B41000206C
:101FD0002000020038B5284B044698420D4644D0F4
:101FE000264B98423ED040F25E312548FEF7D4FCA5
:101FF000002D3DD140F25F312148FEF7CDFC1E4B54
:102000009C4228D11F4B2269D00744BF2022E260A6
:102010006A88910701D5298951B3520701D52A8AC7
:1020200032B34FF480721A6000229D601A71C0238F
:10203000E3606369DB0513D4202204F50053DA63FF
:10204000114A2046DA63236C43F4FC632364BDE841
:102050003840FFF79DBE094B9C4209D10B4BD2E79C
:10206000636AE6E70029F9D1C4E70029CAD1C1E7CC
:102070006FF0030038BD00BF0000015A0080065019
:10208000E82B0000A8100020FFFF1F00B410002064
:102090000B4B984211D003F5804398420DD003F5C5
:1020A0008043984209D003F58043984205D003F558
:1020B0008043C31A5842584170470120704700BFFF
:1020C00000800450F8B51F461A4B0E46984215463C
:1020D0001ED003F5804398421CD003F580439842FC
:1020E0001AD003F58043984218D003F580439842F4
:1020F00016D011488221FEF74FFC4FF0FF30062129
:102100000E4C7FB101FB006004EB8000C560F8BDA0
:102110000020F4E70120F2E70220F0E70320EEE7D9
:102120000420ECE701FB00602D0204EB8004E56075
:10213000EDE700BF00800450342C00000081035004
:10214000036BDA0702D503695B06F9D47047000018
:1021500038B505460C46FFF79BFF18B9A52127485F
:10216000FEF71AFC2846FFF7EBFF012205F50053A6
:102170001A63237961881B0243EA8143617A0B4326
:102180006178002914BF402100210B43A17A002966
:1021900014BF802100210B43E17A002914BF2021C4
:1021A00000210B43217B002914BF102100210B4388
:1021B000617B002914BF082100210B43A17900296C
:1021C00014BF4FF4803100210B436B6005F5805341
:1021D0001A6322780AB90223EB6000236B62E1796B
:1021E000237A43EA81036179002914BF1021002179
:1021F0000B43AB600AB10123EB6038BD342C000007
:10220000F8B506460F461446FFF742FF18B9F52108
:102210002748FEF7C1FB022F03D9F6212448FEF719
:10222000BBFB3046FFF78CFF012206F500531A6313
:10223000E279E57A002A627A14BF4FF48011002116
:10224000002A14BF10220022A37943EAC5430B439E
:10225000134306EB47152B66237A2BB3237B2A6E99
:10226000394642EA43422A66013B18BF0123A2785D
:10227000FFF728FF012306F5805633636378227841
:102280001B0643EA8263E27843EA0233227943EA97
:102290008223627943EA0223A27A002A14BF04222D
:1022A000002213436B66F8BD2B6E2B66E2E700BF7E
:1022B000342C000070B506460C46154622B940F293
:1022C0008E210C48FEF768FB24B94FF42070FEF70E
:1022D00079FD04466D00013CB4FBF5F4064B250284
:1022E00013EA042304D040F2B3210248FEF754FB62
:1022F000F56170BD652C0000070080FF194B10B51B
:102300009842044608D003F58043984204D040F236
:1023100042411548FEF740FB012204F580535A6004
:1023200040F6AA6341F20502636100230F49A360EE
:10233000E365E26004F500522361E361E3649164C4
:102340000849A3658C4202D00948844207D18C42D7
:10235000236502D0064B9C4201D100236365012313
:10236000536010BD00C00550652C0000FFFF010048
:102370000000065038B5334B044698420D4608D04D
:1023800003F58043984204D040F269312E48FEF7AD
:1023900003FB2046FFF7B2FF0122A97B04F580531F
:1023A0005A602A8AA368002914BF4FF48061002173
:1023B00042F0010213432A7D0B43002A14BF4FF061
:1023C00000520022A360A3681343A360AB7C5BB1FF
:1023D0001C4AEB7C94422DD1A2F51032C2F88C310C
:1023E000E36D43F08003E3652B7B2046D5E90112C2
:1023F00043F48053E360FFF75DFF6B7B0BB1102369
:1024000063616B7D1BB1A36843F48033A360AB7D34
:102410001BB1A36843F40043A360EB7D2A7E1B0736
:10242000120503F0E04302F4E0021343A3652B78A6
:10243000636138BD054A944204BFA2F52032C2F858
:102440009C31CDE700C00550652C0000000006500F
:1024500083695A06FCD5C16383699B06FCD5406A33
:10246000C0B2704707B56B46054A1068516803C390
:102470006846FFF7D3FA002003B05DF804FB00BF05
:10248000962C000013B50024064A6846536F43F0AB
:102490000103536700948DF80440FFF705FA2046C6
:1024A00002B010BD0040005030B58BB06C46154DE9
:1024B0000FCD0FC40FCD0FC495E8030084E80300CF
:1024C000114BD3F84C21120314D4D3F85041E4B289
:1024D0008DF81940FEF7F6FE204480F308008DF8D1
:1024E00018000A48FEF736FA6846FEF7F9FD0020A4
:1024F0000BB030BD064B1C884FF6FF739C4208BFE3
:102500007824E5E7A02C00000080E00F00F04902ED
:102510000001E00F30B5094D87B001AC0FCD0FC4FD
:102520002B6801A8236025238DF80530FEF7D0FE27
:102530006420FEF72FFF002007B030BDC82C00003C
:102540006FF00402502110B50A480B4C12F0800FB6
:10255000D3B21BBF03F00F03043BA3181B1802F1F7
:1025600001020CBF83F800131976402AEED1002037
:1025700010BD00BF00ED00E000E100E008B5FEF78F
:1025800039F8FEF767F8FEF766F8FEF766F8BDE87B
:102590000840FEF763B808B5FEF761F8FEF760F88B
:1025A000FEF75FF8BDE80840FEF75CB810B50446DA
:1025B000FEF7B4F94FF47A729042B0FBF2F105D213
:1025C0003621BDE810400C48FEF7E6B90B4BB3FBD3
:1025D000F1F30B49884201D93C21F2E702FB04F0F8
:1025E000B0FBF3F0022806D9BDE810400323B0FB8E
:1025F000F3F000F00DB810BDDC2C000040420F00DD
:10260000E7CD9A3B00000000000000000000000041
:10261000013800D0FCE7704700F060B8012838BFEF
:10262000012010B50446204600F050F830B900F003
:1026300007F808B900F00AF88047F4E710BD000079
:10264000014BD3E8AF0F7047C0100020062008B53B
:1026500000F06CF9012000F0A3F9000008B5074B69
:10266000044613B1002100E000BF054B1868836ADF
:1026700003B19847204600F093F900BF0000000026
:10268000182D000070B50D4D00260D4C641BA410D4
:10269000A64209D10B4D00260B4C00F083F9641BB8
:1026A000A410A64205D170BD55F8043B01369847E9
:1026B000EEE755F8043B01369847F2E77C1000201E
:1026C0007C1000207C10002080100020024B01466E
:1026D000186800F07FB800BF18100020024B0146B8
:1026E000186800F00BB800BF181000200244034621
:1026F000934200D1704703F8011BF9E737B5002971
:1027000043D051F8043C0C1F0190002BB8BFE418D3
:1027100000F028F91E4A0198136833B96360146009
:1027200003B0BDE8304000F023B9A34208D92568C2
:1027300061198B4201BF19685B6849192160EDE797
:102740001A465B680BB1A342FAD911685518A54225
:102750000BD12468214454181160A342E0D11C68B5
:102760005B68214453601160DAE702D90C230360EF
:10277000D6E7256861198B4202BF19685B68491961
:10278000636008BF21605460CAE703B030BD00BF7A
:10279000C410002070B50E4E0C460546316811B9C4
:1027A00000F08CF830602146284600F087F8431C82
:1027B0000AD0C41C24F00304A04207D0211A2846E2
:1027C00000F07CF8013001D14FF0FF34204670BD9D
:1027D000C81000202DE9F041CD1C074625F0030567
:1027E00008350C2D38BF0C25002D01DBA94205D979
:1027F0000C2300263B603046BDE8F0812E4E00F0F1
:10280000B1F833681C4634BB29463846FFF7C2FF8F
:10281000431C04464DD134682646002E40D123681F
:102820003146384604EB030800F048F880453AD1B9
:102830002168033538466D1A25F0030508350C2D3F
:1028400038BF0C252946FFF7A5FF01302BD02368A0
:102850002B4423600EE02268521B1ED40B2A16D98B
:102860006119A342256018BF5960636808BF3160D1
:1028700062514B6004F10B06384600F079F8231DD5
:1028800026F00706F21AB6D09B1BA350B3E7626886
:10289000A3420CBF32605A60ECE723466468B2E79B
:1028A00034467668B9E70C2338463B6000F060F8A0
:1028B000A1E72560DEE700BFC410002038B5002383
:1028C000054D044608462B60FEF768F8431C02D10C
:1028D0002B6803B1236038BDCC1000201F2938B508
:1028E00004460D4604D9162303604FF0FF3038BD6F
:1028F000426C12B152F821304BB9204600F030F84A
:102900002A4601462046BDE8384000F017B8012BA2
:102910000AD0591C03D1162303600120E7E70024E5
:10292000284642F8254098470020E0E7024B014640
:102930001868FFF7D3BF00BF1810002038B5002378
:10294000064D0446084611462B6000F021F8431C52
:1029500002D12B6803B1236038BD00BFCC1000202A
:1029600000F00EB8014800F009B800BFD0100020F8
:10297000014800F004B800BFD01000207047704735
:10298000024B58224FF0FF301A607047CC100020E5
:10299000024B58224FF0FF301A607047CC100020D5
:1029A000FEE700BFF8B500BFF8BC08BC9E46704704
:1029B000F8B500BFF8BC08BC9E4670470101000096
:1029C00000000000A086010000000000433A5C55B2
:1029D000736572735C39313938375C53696D706C6B
:1029E000696369747953747564696F5C76355F7770
:1029F0006F726B73706163655C656D7074795F6332
:102A000070705C6765636B6F5F73646B5F342E31EE
:102A10002E315C706C6174666F726D5C656D6C6993
:102A2000625C696E632F656D5F6770696F2E680009
:102A3000070605040301020000000000000000007A
:102A4000750300008303000091030000C103000030
:102A500071030000433A5C55736572735C39313918
:102A600038375C53696D706C696369747953747538
:102A700064696F5C76355F776F726B7370616365E5
:102A80005C656D7074795F6370705C6765636B6FB4
:102A90005F73646B5F342E312E315C706C617466D1
:102AA0006F726D5C656D6C69625C696E632F656DDC
:102AB0005F74696D65722E68000000000000000000
:102AC00000000000110400001D04000029040000A3
:102AD0002F040000350400003B0400004104000006
:102AE00047040000B9040000D10400004D040000B8
:102AF000C50400002E2E2F6765636B6F5F73646BD8
:102B00005F342E312E312F68617264776172652FC8
:102B1000626F6172642F7372632F736C5F626F6197
:102B200072645F636F6E74726F6C5F6770696F2E33
:102B300063000000050000000000000040420F009C
:102B4000050100000000000000000000000000007F
:102B50002E2E2F6765636B6F5F73646B5F342E314E
:102B60002E312F706C6174666F726D2F656D6C699C
:102B7000622F7372632F656D5F636D752E63000244
:102B80000101030302060105042E2E2F6765636B06
:102B90006F5F73646B5F342E312E312F706C6174F4
:102BA000666F726D2F656D6C69622F7372632F652E
:102BB0006D5F656D752E63002E2E2F6765636B6FDD
:102BC0005F73646B5F342E312E312F706C617466CD
:102BD0006F726D2F656D6C69622F7372632F656DF7
:102BE0005F6770696F2E63002E2E2F6765636B6FB2
:102BF0005F73646B5F342E312E312F706C6174669D
:102C00006F726D2F656D6C69622F7372632F656DC6
:102C10005F6932632E63000080841E00404B4C00CD
:102C2000809FD50080841E0040548900002D310112
:102C3000080911082E2E2F6765636B6F5F73646B35
:102C40005F342E312E312F706C6174666F726D2F70
:102C5000656D6C69622F7372632F656D5F74696D4A
:102C600065722E63002E2E2F6765636B6F5F736432
:102C70006B5F342E312E312F706C6174666F726D04
:102C80002F656D6C69622F7372632F656D5F75734D
:102C90006172742E63000103040101010903000045
:102CA0000B0000000B0000000200000000002020CC
:102CB00000000000030000008C8C3C0000000000BD
:102CC00000000000000000000126000004000000D9
:102CD0000000000000010000000000002E2E2F6701
:102CE00065636B6F5F73646B5F342E312E312F70B1
:102CF0006C6174666F726D2F736572766963652F90
:102D00007564656C61792F7372632F736C5F756482
:0C2D1000656C61792E6300001C1000202F
:082D1C0064D4FF7F01000000F8
:0C2D2400302D00000010002021000000F5
:102D3000C0EA2101C0EA210100F049020080000040
:102D4000D8100020FFFF00001C1000200000000031
:102D50000000000000000000000000000000000073
:102D60000000000000000000000000000000000063
:102D70000000000000000000000000000000000053
:102D80000000000000000000000000000000000043
:102D90000000000000000000000000000000000033
:102DA00000000000000000000000000065010000BD
:042DB00041010000DD
:0400000300000819D8
:00000001FF
