:1000000000100020710600006D0600006D06000063
:100010006D0600006D0600006D0600006D06000014
:100020006D0600006D0600006D0600006D06000004
:100030006D0600006D0600006D0600006D060000F4
:100040006D0600006D0600006D0600006D060000E4
:100050006D0600006D0600006D06000055030000EF
:100060006D0600006D0600006D0600006D060000C4
:100070006D0600006D0600006D0600006D060000B4
:100080006D0600006D0600006D0600006D060000A4
:100090006D0600006D0600006D0600006D06000094
:1000A0006D0600006D0600006D0600006D06000084
:1000B0006D0600006D0600006D0600006D06000074
:1000C0006D0600006D0600006D0600006D06000064
:1000D0006D0600006D0600006D0600006D06000054
:1000E0006D0600006D0600006D0600006D06000044
:1000F0006D0600006D0600006D0600006D06000034
:100100006D0600006D0600006D0600006D06000023
:100110006D0600006D0600006D0600006D06000013
:100120006D0600006D0600006D0600006D06000003
:100130006D0600006D0600006D0600006D060000F3
:1001400010B5054C237833B9044B13B1044800E0D3
:1001500000BF0123237010BD7C10002000000000B0
:10016000F822000008B5034B1BB10349034800E027
:1001700000BF08BD0000000080100020F822000031
:10018000A3F5803A704700BF174B002B08BF134BF5
:100190009D46FFF7F5FF00218B460F461348144A92
:1001A000121A01F041FF0E4B002B00D098470D4B67
:1001B000002B00D098470020002104000D000D48BE
:1001C000002802D00C4800E000BF01F009FF200029
:1001D000290000F0A3F801F0EFFE00BF00000800C6
:1001E0000000000000000000001000207C10002033
:1001F0009C1000200000000000000000012400B559
:1002000093B00E2200210EA801F00EFF0D22002156
:100210000AA88DF8384001F007FF43F609530AAAEF
:100220000EA901A800F0B8F823460422002104A872
:1002300000F016F823462246214607A800F010F8E1
:1002400004A800F01BF801A800F08EF80028FAD0EE
:1002500001A800F08FF804A800F038F8F3E7704721
:1002600038B50446012A18462372C4E900120CBFAF
:100270001346002301F092FB204638BD38B5047ABE
:100280000568D4B1012C1BD0022C1BD0032C03D148
:100290000F23EB40DB0704D440F22D410A4800F065
:1002A000A7FA30220123544341F2100204F1A04482
:1002B000AB4004F57034A35038BD40F2FF13E8E7BB
:1002C0001F23E6E7FF23E4E75420000038B5047A53
:1002D0000568D4B1012C1BD0022C1BD0032C03D1F8
:1002E0000F23EB40DB0704D44FF489610A4800F088
:1002F0007FFA30220123544343F2100204F1A04458
:10030000AB4004F57034A35038BD40F2FF13E8E76A
:100310001F23E6E7FF23E4E75420000008B501F0BF
:1003200003FEFFF76BFF01F00CFEFFF798FFFAE703
:1003300038B5064D04462B6BDB0704D440F28B41E5
:10034000034800F055FAEC6138BD00BF008004504E
:10035000B82000000123024A5361024A137070471B
:1003600000A0045098100020014B1878704700BF7F
:10037000981000200022014B1A707047981000203E
:10038000012243681A70034BDA609A6942F0010255
:100390009A6170470080045070B50446C0E900318E
:1003A0008260012124201D4600F0FEFB40F2FF3355
:1003B0000026022261680B484B80A3680E709A7178
:1003C00001F09CFB3146A268064801F0EFFB802259
:1003D000054B1A602846FFF7ABFF2046FFF7D0FF1A
:1003E00070BD00BF0080045000E100E008B50120AE
:1003F00000F068F8202000F065F8BDE808404020D3
:1004000000F060B808B50321802000F085FF0321CB
:100410004FF4806000F080FF03214FF4906000F003
:100420007BFF08214FF4C06000F076FF08214FF4F5
:10043000F06000F071FF08213E2000F06DFF082100
:100440002D2000F069FF002008BD000008B5134B07
:100450001B68C3F30743012B0ED1114B04205A6EC6
:100460004FF480230F49520358BF0F4A4B6601F5E2
:100470001041086258BF536601F038FD00F05BF888
:1004800001F0C6FC01F0E6FC01F01AFDFFF7BAFF2F
:1004900001F0CEFCBDE8084000F042B80080E00F5B
:1004A000008000500090005000A00050704700F005
:1004B00006B87047704770477047704770470F2005
:1004C00070470000082808B516D00DDC022803DCB0
:1004D000002811DCEB2102E00428FBD1C2210F48E7
:1004E00000F086F90E2013E020280AD0402810D012
:1004F0001028EFD1D421F2E7042200231146184638
:1005000003E0042200231146012001F047FA0020F5
:1005100008BD002304221946F1E700BF1D21000099
:1005200008B501213A2000F03FFBFFF75FFFBDE86F
:10053000084000F011B801213A2000F035BB00005E
:100540000822014B1A67704700D003500822014B64
:100550001A67704700E00350F0B5404D89B001AC18
:100560000FCD0FC495E8070084E80700012401219E
:100570003A2000F019FB3A4F0121282000F014FB2B
:10058000384B384601A903938DF8124001F0C8FB9F
:10059000234604220021022001F000FA22462146CF
:1005A0000023022001F0FAF9022123460846042222
:1005B00001F0F4F9042203212346022001F0EEF9B0
:1005C0004FF00213284D0226C5F83036A3F58033CC
:1005D000C5F82C361C23C5F834664FF44870C5F8AE
:1005E0001C3601F0B9FC1420FFF7B0FF01F0B4FC99
:1005F0002320FFF7A5FF01F0AFFCB9213846FFF734
:10060000A5FF01F0FBFBFFF79BFF002330461A46D6
:10061000194601F0C3F9002321461A46304601F07D
:10062000BDF9234631463046002201F0B7F9234692
:1006300000220321304601F0B1F9384601F034FBC5
:1006400000212820C5F83016C5F82C16C5F8341638
:10065000C5F81C1600F0A8FA09B0F0BD5C21000036
:1006600000C0055000127A0000C00350FEE70000F1
:1006700008B500F02DF8124B12498B4212D300201E
:10068000114B12498B4218D3FFF77EFD186850F8C2
:100690002240586840F82240013298688242F5D3DF
:1006A0000C33EAE70022F8E71C6844F82200013224
:1006B0005C68A242F8D30833E4E70022F8E700BF01
:1006C000002300000C2300000C2300000C2300007A
:1006D0004FF400414FF0FF30124B134A10B59A60AF
:1006E000D3F8882042F47002C3F888200F4A91663C
:1006F00001F1884101F5005210664FF6DF70506637
:100700000220C3F8D000BFF34F8FBFF36F8F0824D0
:100710004FF440330648C0F88041D36004600B6159
:1007200010BD00BF00ED00E0000000000090005090
:1007300000E100E0014B1868704700BF0410002082
:10074000084B1B6F03F00703022B04D0032B05D0CB
:10075000012B05D0FEE7044B18687047034BFBE7FD
:10076000034870470080005004100020081000204B
:10077000002D310108B5FFF7E3FF054B1B6FC3F3F5
:1007800003330133B0FBF3F0024B186008BD00BF28
:1007900000800050001000200048704700B4C404DE
:1007A000014B1868704700BF08100020054B186007
:1007B000054B1B6F03F00703032B01D1FFF7DABFD3
:1007C000704700BF081000200080005000207047D4
:1007D00000487047002D31014FF4004070474FF43E
:1007E0007A707047014B1868704700BF0C100020EA
:1007F000FEE70000044BD3F88420D206FBD4D3F8E4
:100800008400C0F3811070470040005038B5124B8F
:100810000546D3F820310C4603F00303022B0BD01E
:10082000032B0DD0012B0FD1FFF784FF052305B15A
:10083000286004B1236038BDFFF7B2FF0323F6E759
:10084000FFF7C6FF0223F2E7044841F22B01FFF74E
:10085000CFFF00231846EAE700800050782100000F
:10086000F7B50027114B0197D3F88041064604F0F5
:100870000304012C0D4608D0022C12D041F278114D
:100880000B48FFF7B5FF3C4604E0394601A8FFF7E7
:10089000BDFF0F240EB1019B336005B12C6003B086
:1008A000F0BDFFF795FF0190F4E700BF0080005016
:1008B0007821000038B5194B0546D3F824310C4691
:1008C00003F00703013B052B20D8DFE803F0030FFB
:1008D000171B0B13FFF72EFF052305B1286004B18A
:1008E000236038BDFFF726FF0623F6E7FFF758FF22
:1008F0000323F2E7FFF754FF0423EEE7FFF768FF57
:100900000223EAE7FFF762FF0723E6E7044840F621
:100910008851FFF76DFF00231846DEE70080005086
:100920007821000038B5124B0546D3F840310C460B
:1009300003F00303022B0BD0032B0DD0012B0FD19F
:10094000FFF74AFF092305B1286004B1236038BDD1
:10095000FFF748FF0823F6E7FFF741FF0B23F2E715
:10096000044841F25901FFF743FF00231846EAE724
:10097000008000507821000038B5154B0546D3F8AB
:1009800000320C4603F00703013B032B18D8DFE8C5
:1009900003F0020A0E12FFF71FFF092305B12860BA
:1009A00004B1236038BDFFF71DFF0823F6E7FFF70A
:1009B00016FF0B23F2E7FFF7DDFE0E23800AEDE7BB
:1009C000044841F22E21FFF713FF00231846E5E704
:1009D000008000507821000038B5124B0546D3F84E
:1009E00040320C4603F00303022B0BD0032B0DD037
:1009F000012B0FD1FFF7F0FE092305B1286004B1E8
:100A0000236038BDFFF7EEFE0823F6E7FFF7E7FEA9
:100A10000B23F2E7044841F2C111FFF7E9FE00237E
:100A20001846EAE7008000507821000038B5124BE4
:100A30000546D3F860310C4603F00303022B0BD0BC
:100A4000032B0DD0012B0FD1FFF7C6FE092305B1F3
:100A5000286004B1236038BDFFF7C4FE0823F6E721
:100A6000FFF7BDFE0B23F2E7044841F28701FFF7D1
:100A7000BFFE00231846EAE70080005078210000FE
:100A800010B40F4C0B46D4F8204204F00304012CA0
:100A90000ED0022C10D008B1002101600BB1002251
:100AA0001A6040F6B25107485DF8044BFFF7A0BE4C
:100AB0005DF8044BFFF7AABE5DF8044BFFF732BFA9
:100AC0000080005078210000B0F5207F10B534D0B0
:100AD00009D8B0F5007F2AD003D898B1B0F5C07F0F
:100AE00010D0002421E0B0F5607FFAD1154BD3F887
:100AF0008030C3F301149B0617D5032C15D040F2A8
:100B000082210FE00F4B1C6F230B13F00E0FC4F369
:100B100003340AD0032C08D0072C06D00F2C04D0A5
:100B200040F272210848FFF763FE601C10BD054BC0
:100B3000D3F89040C4F30464F7E7024B1C6FC4F38E
:100B40008024F2E700800050782100004FF400324A
:100B50000E4B10B504469A660020FFF7B5FF41F62C
:100B6000713260430A4C0B4BA0428CBF4FF4801093
:100B70000020D969DA639A6822F4401202439A602D
:100B8000CA0344BF0022DA6310BD00BF00900050CA
:100B9000005A62020000035008B5FFF7FDFDBDE8F2
:100BA00008400021FFF7D2BF70B5460904460D4644
:100BB0000FD140F216310D48FFF71AFE334604F00C
:100BC0001F0485B103F58053012000FA04F41C6072
:100BD00070BD012E05D0064B064A022E18BF1346E3
:100BE000EDE7054BEBE703F50053EDE77821000057
:100BF000688000506082005064800050002330B54F
:100C0000802885B00446019374D02AD8002877D074
:100C1000A0F12004412C32D8412C30D8DFE804F078
:100C200070737073868686867373903FA6653F7374
:100C300073732F2F2F2F2F2F8B57737373B0AB73AB
:100C40002F2F2F2F2F2F2F2F2F2F2F2F2F702F7032
:100C50007070862F2F2F2F2F2F2F2F2F2F2F2F2FCB
:100C60007070B0F5806F61D024D8B0F5007F54D09B
:100C70000BD8B0F5807F68D0B0F5C07F40D040F28F
:100C80006D414248FFF7B4FD37E0B0F5607F44D0D6
:100C9000F5D8B0F5207F36D0B0F5407FEFD1FFF723
:100CA00069FD04464FF42070FFF70EFFB4FBF0F02F
:100CB000400821E0B0F5C06F58D00DD8B0F5A06F56
:100CC00039D0B0F5B06F3BD0B0F5906FD7D10021DF
:100CD00001A8FFF7EFFD10E0B0F5E06F4BD0B0F5E5
:100CE000F06F4DD0B0F5D06FC9D1002101A8FFF74A
:100CF00043FE02E0FFF724FD0190019805B030BDEE
:100D0000FFF738FDF8E7FFF735FD04464FF4207094
:100D1000FFF7DAFEB4FBF0F0EEE7FFF711FD054652
:100D20002046FFF7D1FEB5FBF0F0E5E7002101A872
:100D3000FFF76CFDE1E7002101A8FFF7A1FEDCE76A
:100D4000002101A8FFF78CFDD7E702934FF0E023C5
:100D50001B695B0705D5FFF70DFD0290029B019310
:100D6000CBE703A902A8FFF7DDFDF7E7002101A803
:100D7000FFF7D8FDC1E7002101A8FFF72DFEBCE772
:100D8000002101A8FFF752FEB7E700BF782100005D
:100D900008B58020FFF732FF034B98429EBF4FF407
:100DA0008032024B1A6708BD005A620200A0005050
:100DB0001FB50023B0F5807F01937FD027D8382856
:100DC00000F09C800BD82438092810D809280ED8A8
:100DD000DFE800F06F6F6F6F0D0D670D36855228DD
:100DE00067D007D83D283AD03E2800F08C8040F2EA
:100DF0004B5152E08028FAD1454B1B6F03F007039B
:100E0000013B032B47D8DFE803F044413F75B0F5C1
:100E1000D06F64D019D8B0F5A06F6FD00AD8B0F5F4
:100E2000806F46D0B0F5906FE1D1002001A9FFF7A7
:100E300041FD3AE0B0F5B06F33D0B0F5C06FD6D118
:100E4000002001A9FFF76EFD2FE0B0F5006FECD098
:100E50000AD8B0F5E06F56D0B0F5F06FC7D10020DA
:100E600001A9FFF7E3FD20E0B0F5086FBFD1284BE3
:100E7000D3F8003103F00303022B35D0032B37D016
:100E8000012B39D1FFF78CFC032300E005230193EC
:100E90000BE00223FBE740F29F411E48FFF7A8FC4E
:100EA00003E0002001A9FFF7DBFC019805B05DF825
:100EB00004FB002001A9FFF7A9FCF6E702934FF01D
:100EC000E0231B695B0705D5FFF754FC0C23039354
:100ED000039BDCE703A902A8FFF724FDF8E7002045
:100EE00001A9FFF749FDE0E7FFF77CFC0823CEE707
:100EF000FFF76CFC0723CAE70123C8E7002001A91C
:100F0000FFF7BEFDD1E7002001A9FFF765FDCCE7A3
:100F10000080005078210000036870B50F2B044654
:100F200004D940F663216E48FFF762FC63680F2B1B
:100F300004D940F666216A48FFF75AFCA3680F2BD4
:100F400004D940F669216648FFF752FC237B0F2B3A
:100F500004D940F66C216248FFF74AFC637B0F2BF3
:100F600004D940F66F215E48FFF742FCA37B3F2B7C
:100F700004D940F672215A48FFF73AFCE37B3F2B35
:100F800004D940F675215648FFF732FC2369032B3C
:100F900004D940F678215248FFF72AFC6369032BF5
:100FA00004D940F67B214E48FFF722FCE369012B70
:100FB00004D940F67E214A48FFF71AFC8020FFF74B
:100FC000F7FE032800F082804FF40022454B0221F7
:100FD0005A6645F60E03444AC2F88030434B996284
:100FE000012103F580539962936DD903FCD4D4E9B0
:100FF00000131B0543EA0163E17B94F822500B4385
:10100000217B94F8236043EA0143617B43EA013387
:10101000A17B43EA811313619169D4E904031B06A0
:1010200043EA806301F000410B43A17EE07E0B4365
:10103000217E43EA0143617E43EA01239361E36930
:10104000126A002B0CBF0021082122F00D0242EA97
:10105000030242EA8002244B42EA01021A6294F837
:1010600020204FEA421232D1986A94F8211020F0E1
:10107000330042EA0112024342F001029A621C4A22
:10108000996D32EA0101FBD1022218498A621A6580
:101090009A6D5200FCD41869A26820F4700040EAEE
:1010A00002504FF000421861104B9A611DB90222A4
:1010B00003F580539A6216B901220E4B9A6294F896
:1010C00024301BB1084B0C4AC3F8802070BD996ACC
:1010D00021F0330131430A4342EA4502EEE700BF03
:1010E000782100000090005000C0005000D0005057
:1010F0000300014000E00050F1A7FFFF014B93F90E
:101100000000704799100020436810B5072B044673
:1011100004D940F6E1312A48FFF76AFBA368032BA4
:1011200004D940F6E3312648FFF762FB2378032B0E
:1011300004D940F6E5312248FFF75AFB94F9013013
:10114000002B04DA40F6E7311D48FFF751FB4FF45E
:1011500080011C4A637851664FF4D151022002F598
:10116000B832516218494F2B48604FF0010028BF38
:101170004F2301F5805148601169C903FCD42178DF
:1011800043EA01235361D4E901131B0143EA01231C
:10119000617B0B43217B43EA41039360E37BA17BAB
:1011A0001B0143EA4113617C0B43217C43EA410369
:1011B0005360A37C13B16FF4D153536210BD00BFD1
:1011C000782100000090005000100250014B188060
:1011D000704700BF101000200029CCBF0121002162
:1011E000FFF7B4BCB0F5207F10B565D00ED8B0F5D0
:1011F000007F4FD003D800B3B0F5C07F1DD040F2C0
:10120000F921BDE810403448FFF7F2BAB0F5607F2D
:10121000F5D14C1E012C06D9042904D040F2DD2161
:101220002D48FFF7E5FA2D4AD2F8803023F030033D
:1012300043EA0413C2F8803010BD102901F1FF34D5
:1012400004D8274B23FA01F1CB0704D440F2B22192
:101250002148FFF7CDFAFFF79FFC00F045F84FF467
:101260008031204B1D4A1967136F23F4704343EA02
:1012700004331367FFF77EFA0446FFF7BBFAC0F1A9
:1012800002012046FFF7A8FF00F034F8BDE8104047
:10129000FFF77EBD4C1E1F2C04D940F2ED210E48F5
:1012A000FFF7A6FA0D4BD3F8901021F0F85141EA60
:1012B0000461C3F89010BFE74C1E012C04D940F222
:1012C000F3210548FFF794FA044B196F21F480616C
:1012D00041EA84211967AFE77821000000800050BF
:1012E000160101000090005002214FF42070FFF71A
:1012F00079BF000008B54FF4C070FFF77FFCBDE870
:101300000840044988428CBF022101214FF420701B
:10131000FFF768BF80F0FA02B0F5807F70B50C4629
:1013200000F008812BD8382800F0A08110D824388C
:10133000092816D8092814D8DFE810F0E100E100E8
:10134000E100E10013001300CC001300480050013D
:10135000522800F0D48007D83D2851D03E2800F014
:101360009C8140F667011FE18028FAD18B1E052B76
:1013700000F2A580DFE803F0A091A3ABA364B0F571
:10138000D06F00F02B8130D8B0F5A06F00F06E81E7
:1013900015D8B0F5806F00F0B280B0F5906FE0D155
:1013A000023C052C00F21381A74B195DA74AD2F825
:1013B000243123F007030B43C2F824316CE0B0F56D
:1013C000B06F00F08780B0F5C06FCAD1083C032C25
:1013D00000F2EF809E4B195D9C4AD2F8403123F019
:1013E00003030B43C2F8403156E0B0F5006FD7D08D
:1013F00015D8B0F5E06F00F05081B0F5F06FB0D1C6
:10140000083C032C00F2DC80924B195D8F4AD2F825
:10141000603123F003030B43C2F860313CE0B0F5C8
:10142000086F9ED14C1E072C00F20481DFE814F0F7
:101430000701020109010201020102010001F60097
:10144000002504260121022000F056F9FFF7A4FB35
:10145000FFF74AFF4FF480317F4B7C4A1967136FC7
:1014600023F0070333431367FFF784F90646FFF7BA
:10147000C1F9C0F102013046FFF7AEFE01210020A4
:1014800000F092F9FFF736FFFFF782FC25B9032C35
:1014900002D10122714B9A6270BD4FF400226E4B53
:1014A0000E465A66012203F540539D6A03F58053A8
:1014B000C5F340059A62C5E700250126C2E700256D
:1014C00040F28D516648FFF793F92E46BAE70025A2
:1014D0000226B7E7022C07D00F2C0ED040F2D251D3
:1014E0005F48FFF785F90024584BD3F8801121F0AD
:1014F00003010C43C3F88041CEE70124F4E7032C39
:1015000012D0052C12D0022C12D040F2096154489E
:10151000FFF76EF900224D49D1F8203123F0030383
:101520001343C1F82031B7E70222F4E70122F2E7C2
:101530000322F0E7A1F10804082C33D8DFE804F017
:10154000050532051C32323205004FF480323F4B24
:101550004449586E03F580535A660B6A43F0010301
:101560000B62C1035CBF404B5A664FF0E022136927
:1015700023F0040313618FE74FF48032334B394972
:10158000586E03F580535A660B6A23F001030B6211
:10159000C3035CBF344B5A664FF0E022136943F03B
:1015A0000403E7E740F23161BDE870402C48FFF7E3
:1015B0001FB940F24D612A48FFF71AF900210BE7E5
:1015C0004FF4CD612648FFF713F900211EE740F2E2
:1015D0008D612348FFF70CF90021E7E6083C062C53
:1015E00013D8DFE804F00419190E121210000222B9
:1015F0001649D1F8003223F007031343C1F8003233
:101600004AE70322F4E70422F2E740F2AD6114480E
:10161000FFF7EEF80022EBE70122E9E702220B498F
:10162000D1F8003123F003031343C1F8003133E74D
:101630000322F4E740F2E9610948FFF7D9F80022F4
:10164000EDE70122EBE700BFAB2100000080005076
:10165000A7210000A72100000090005000E00050EA
:101660007821000000C0075000A000500F2C10D0BF
:10167000102C10D040F234711248FFF7B9F8002254
:101680001149D1F8203223F003031343C1F820326B
:1016900002E70122F4E70222F2E7083C032C0AD811
:1016A0000A4B195D084AD2F8403223F003030B437A
:1016B000C2F84032F0E640F2B5710248FFF798F800
:1016C0000021EFE77821000000800050A7210000F2
:1016D000EFF3108072B6704700B962B67047000031
:1016E000034A0179D36E23F030030B43D36670476E
:1016F00000400050704700002DE9F0410446264BA1
:10170000D3F88420D006FBD4D3F88430C3F38113FC
:101710009C423ED0FFF714F8012C05460BD11F4B1D
:10172000984204D940F2FD611D48FFF761F801219C
:101730002846FFF751FDFFF7CBFF4FF00072194B22
:1017400007465A662046FFF7D5FF4FF48063124ED6
:10175000621E9340DFF848803367736E9A0103D4AA
:10176000D6F884309B060AD53846FFF7B5FF022C21
:101770000FD12846BDE8F0410021FFF72DBDD6F876
:1017800084309906E9D540F20B714046FFF730F8F6
:10179000E3E7BDE8F08100BF00400050005A62025C
:1017A000B12100000060005007B518B90191FEF7A3
:1017B000C7FF0199064B1B7843B1064B984205D8E9
:1017C000012003B05DF804EBFFF796BF0220F8E7B5
:1017D0009A100020005A6202704700004FF0004249
:1017E00010B501244AF6CD31154B5A66154A03F55A
:1017F0000B2354605A6C1964224088B9996811F01F
:10180000010F114903D08C60D86AC007FCD50123B1
:101810004B6012B10D4B0E4A1A64FFF7DDFF10BD8D
:10182000D96A0907FCD42021074B59620121A3F58D
:101830008053996005494B6A9B06FCD5E9E700BFD8
:1018400000900050005009500060095000400950BD
:101850003254FFFF4FF0004238B5194B194C5A660D
:10186000012203F50C235A604AF6CD33656C2364DC
:101870004378154093401343134AD363A368827897
:1018800023F0740343EA0213C278002A14BF04222F
:1018900000221343A3600279837943EA0223236180
:1018A0004279C37943EA022363610078FFF796FF28
:1018B0000DB1064B2364FFF78FFF012038BD00BF39
:1018C0000090005000400950004000503254FFFF8B
:1018D00038B50D460446D8B101281CD002281CD0CA
:1018E000032803D10F23EB40DB0704D440F22D4142
:1018F0000B48FEF77DFF3020012141F210034443E5
:1019000004F1A04401FA05F504F57034E55038BD42
:1019100040F2FF13E7E71F23E5E7FF23E3E700BFFC
:101920005420000038B50D460446D8B101281CD01B
:1019300002281CD0032803D10F23EB40DB0704D47B
:1019400040F2FE310B48FEF753FF3020012142F2F6
:101950001003444304F1A04401FA05F504F5703482
:10196000E55038BD40F2FF13E7E71F23E5E7FF230B
:10197000E3E700BF5420000070B5054614460E464C
:10198000FFF7A6FE296881EA040202EA06044C4039
:101990002C60BDE87040FFF79FBE0000F8B50D4613
:1019A00016461F46044660B301282DD002282DD0CC
:1019B000032803D10F22EA40D30704D44FF4B071B7
:1019C0001B48FEF715FF26B12946204607B3FFF74F
:1019D0007FFF04EB4403072D4FF00F014FEA031381
:1019E00019D8A80006FA00F2814012481844FFF7FF
:1019F000C3FFE6B929462046AFB1BDE8F840FFF77E
:101A000067BF40F2FF12D6E71F22D4E7FF22D2E7DA
:101A1000FFF788FFDDE7A5F10800800006FA00F275
:101A200081400548E2E7BDE8F840FFF77BBFF8BD1D
:101A3000E021000004C003500CC003500B4B98423F
:101A400011D003F5804398420DD003F580439842AE
:101A500009D003F58043984205D003F58043C31AAB
:101A60005842584170470120704700BF0080045021
:101A7000F8B51F461A4B0E46984215461ED003F580
:101A8000804398421CD003F5804398421AD003F556
:101A90008043984218D003F58043984216D01148ED
:101AA0008221FEF7A5FE4FF0FF3006210E4C7FB1DC
:101AB00001FB006004EB8000C560F8BD0020F4E786
:101AC0000120F2E70220F0E70320EEE70420ECE734
:101AD00001FB00602D0204EB8004E560EDE700BF30
:101AE000008004501022000000810350036BDA07CD
:101AF00002D503695B06F9D47047000038B5054686
:101B00000C46FFF79BFF18B9A5212748FEF770FE8A
:101B10002846FFF7EBFF012205F500531A632379EE
:101B200061881B0243EA8143617A0B436178002993
:101B300014BF402100210B43A17A002914BF80214A
:101B400000210B43E17A002914BF202100210B431F
:101B5000217B002914BF102100210B43617B002948
:101B600014BF082100210B43A179002914BF4FF4B1
:101B7000803100210B436B6005F580531A63227896
:101B80000AB90223EB6000236B62E179237A43EA0E
:101B900081036179002914BF102100210B43AB6040
:101BA0000AB10123EB6038BD10220000F8B50646EB
:101BB0000F461446FFF742FF18B9F5212748FEF7F4
:101BC00017FE022F03D9F6212448FEF711FE3046F6
:101BD000FFF78CFF012206F500531A63E279E57ADC
:101BE000002A627A14BF4FF480110021002A14BF2A
:101BF00010220022A37943EAC5430B43134306EBAB
:101C000047152B66237A2BB3237B2A6E394642EA8B
:101C100043422A66013B18BF0123A278FFF728FF41
:101C2000012306F580563363637822781B0643EA66
:101C30008263E27843EA0233227943EA82236279BB
:101C400043EA0223A27A002A14BF0422002213438B
:101C50006B66F8BD2B6E2B66E2E700BF102200001A
:101C600070B506460C46154622B940F28E210C4846
:101C7000FEF7BEFD24B94FF42070FEF7BFFF044607
:101C80006D00013CB4FBF5F4064B250213EA042376
:101C900004D040F2B3210248FEF7AAFDF56170BD01
:101CA00041220000070080FF194B10B598420446FE
:101CB00008D003F58043984204D040F242411548D1
:101CC000FEF796FD012204F580535A6040F6AA63A0
:101CD00041F20502636100230F49A360E365E260FE
:101CE00004F500522361E361E36491640849A3654C
:101CF0008C4202D00948844207D18C42236502D02D
:101D0000064B9C4201D1002363650123536010BD43
:101D100000C0055041220000FFFF010000000650F6
:101D200038B5334B044698420D4608D003F580433E
:101D3000984204D040F269312E48FEF759FD204602
:101D4000FFF7B2FF0122A97B04F580535A602A8A6B
:101D5000A368002914BF4FF48061002142F0010202
:101D600013432A7D0B43002A14BF4FF00052002278
:101D7000A360A3681343A360AB7C5BB11C4AEB7CFC
:101D800094422DD1A2F51032C2F88C31E36D43F0AC
:101D90008003E3652B7B2046D5E9011243F4805391
:101DA000E360FFF75DFF6B7B0BB1102363616B7D1D
:101DB0001BB1A36843F48033A360AB7D1BB1A36860
:101DC00043F40043A360EB7D2A7E1B07120503F05A
:101DD000E04302F4E0021343A3652B78636138BD4E
:101DE000054A944204BFA2F52032C2F89C31CDE7E7
:101DF00000C00550412200000000065083695A06C9
:101E0000FCD5C16383699B06FCD5406AC0B27047AC
:101E100007B56B46054A1068516803C36846FFF76B
:101E200019FD002003B05DF804FB00BF7222000022
:101E300013B50024064A6846536F43F00103536705
:101E400000948DF80440FFF74BFC204602B010BD13
:101E50000040005030B58BB06C46154D0FCD0FC40F
:101E60000FCD0FC495E8030084E80300114BD3F8AD
:101E70004C21120314D4D3F85041E4B28DF8194028
:101E8000FFF73CF9204480F308008DF818000A4859
:101E9000FEF78CFC6846FFF73FF800200BB030BD22
:101EA000064B1C884FF6FF739C4208BF7824E5E779
:101EB0007C2200000080E00F00F049020001E00FEA
:101EC00030B5094D87B001AC0FCD0FC42B6801A808
:101ED000236025238DF80530FFF716F96420FFF7FE
:101EE00075F9002007B030BDA42200006FF0040295
:101EF000502110B50A480B4C12F0800FD3B21BBF13
:101F000003F00F03043BA3181B1802F101020CBFDE
:101F100083F800131976402AEED1002010BD00BFCF
:101F200000ED00E000E100E008B5FEF78FFAFEF7F3
:101F3000BDFAFEF7BCFAFEF7BCFABDE80840FEF7B2
:101F4000B9BA08B5FEF7B7FAFEF7B6FAFEF7B5FA72
:101F5000BDE80840FEF7B2BA10B50446FEF70AFC29
:101F60004FF47A729042B0FBF2F105D23621BDE80F
:101F700010400C48FEF73CBC0B4BB3FBF1F30B4994
:101F8000884201D93C21F2E702FB04F0B0FBF3F0F8
:101F9000022806D9BDE810400323B0FBF3F000F09F
:101FA00007B810BDB822000040420F00E7CD9A3BB1
:101FB000013800D0FCE7704708B5074B044613B161
:101FC000002100E000BF054B1868836A03B1984701
:101FD000204600F031F800BF00000000F4220000AD
:101FE00070B50D4D00260D4C641BA410A64209D1FE
:101FF0000B4D00260B4C00F021F8641BA410A642E8
:1020000005D170BD55F8043B01369847EEE755F809
:10201000043B01369847F2E774100020741000204A
:10202000741000207810002002440346934200D12F
:10203000704703F8011BF9E7FEE700BFF8B500BFE2
:10204000F8BC08BC9E467047F8B500BFF8BC08BC99
:102050009E467047433A5C55736572735C393139FB
:1020600038375C53696D706C696369747953747542
:1020700064696F5C76355F776F726B7370616365EF
:102080005C656D7074795F6370705C6765636B6FBE
:102090005F73646B5F342E312E315C706C617466DB
:1020A0006F726D5C656D6C69625C696E632F656DE6
:1020B0005F6770696F2E6800433A5C557365727391
:1020C0005C39313938375C53696D706C6963697498
:1020D0007953747564696F5C76355F776F726B7373
:1020E000706163655C656D7074795F6370705C6767
:1020F00065636B6F5F73646B5F342E312E315C7080
:102100006C6174666F726D5C656D6C69625C696E42
:10211000632F656D5F74696D65722E68002E2E2FBA
:102120006765636B6F5F73646B5F342E312E312F85
:1021300068617264776172652F626F6172642F7378
:1021400072632F736C5F626F6172645F636F6E7432
:10215000726F6C5F6770696F2E630000050000008E
:102160000000000040420F000501000000000000D8
:1021700000000000000000002E2E2F6765636B6FCB
:102180005F73646B5F342E312E312F706C61746617
:102190006F726D2F656D6C69622F7372632F656D41
:1021A0005F636D752E6300020101030302060105E2
:1021B000042E2E2F6765636B6F5F73646B5F342E25
:1021C000312E312F706C6174666F726D2F656D6C7E
:1021D00069622F7372632F656D5F656D752E630085
:1021E0002E2E2F6765636B6F5F73646B5F342E31C8
:1021F0002E312F706C6174666F726D2F656D6C6916
:10220000622F7372632F656D5F6770696F2E630055
:102210002E2E2F6765636B6F5F73646B5F342E3197
:102220002E312F706C6174666F726D2F656D6C69E5
:10223000622F7372632F656D5F74696D65722E63B3
:10224000002E2E2F6765636B6F5F73646B5F342E98
:10225000312E312F706C6174666F726D2F656D6CED
:1022600069622F7372632F656D5F75736172742E6F
:102270006300010304010101090300000B000000D9
:102280000B00000002000000000020200000000001
:10229000030000008C8C3C000000000000000000E7
:1022A0000000000001260000040000000000000003
:1022B00000010000000000002E2E2F6765636B6F89
:1022C0005F73646B5F342E312E312F706C617466D6
:1022D0006F726D2F736572766963652F7564656CB7
:1022E00061792F7372632F736C5F7564656C6179AC
:0822F0002E6300001410002011
:0822F80088DEFF7F01000000F9
:0C2300000C230000001000201F00000053
:10230C00C0EA2101C0EA210100F04902008000006E
:10231C00FFFF0000000000000000000000000000B3
:10232C0000000000000000000000000000000000A1
:10233C000000000000000000000000000000000091
:10234C000000000000000000000000000000000081
:10235C000000000000000000000000000000000071
:10236C000000000000000000000000000000000061
:0C237C00000000006501000041010000AD
:040000030000067182
:00000001FF
